{
  "transactions": [
    {
      "hash": "0x602d95a2b67562ab62b76133c1276cdc83c1baf68836119d7dc192846d740e1b",
      "transactionType": "CALL",
      "contractName": null,
      "contractAddress": "0xaefd92921ee2a413ce4c5668ac9558ed68cc2f13",
      "function": "updateFunctionsConfig(uint64,uint32,bytes32,string)",
      "arguments": [
        "102",
        "300000",
        "0x66756e2d626173652d6d61696e6e65742d310000000000000000000000000000",
        "const gameId = args[0];if (!gameId || isNaN(parseInt(gameId))) throw new Error(`Invalid gameId: ${gameId}`);const apiUrl = `https://beatme.creativeplatform.xyz/api/chainlink/game-rankings/${gameId}`;try {const response = await Functions.makeHttpRequest({url: apiUrl,method: \\\"GET\\\",timeout: 9000,headers: { \\'User-Agent\\': \\'Chainlink-Functions-DON/1.0\\', \\'Accept\\': \\'application/json\\' }});if (response.error) throw new Error(`API Error: ${response.error}`);if (response.statusCode !== 200) throw new Error(`HTTP Error: ${response.statusCode}`);if (!response.data) throw new Error(\\'No data received from API\\');const { gameId: returnedGameId, rankings } = response.data;if (!Array.isArray(rankings)) throw new Error(\\'Invalid response format: rankings must be an array\\');if (returnedGameId !== parseInt(gameId)) throw new Error(`GameId mismatch: expected ${gameId}, got ${returnedGameId}`);for (let i = 0; i < rankings.length; i++) {const address = rankings[i];if (typeof address !== \\'string\\' || address.length < 10) {throw new Error(`Invalid address at position ${i}: ${address}`);}}return Functions.encodeString(JSON.stringify(rankings));} catch (error) {return Functions.encodeString(JSON.stringify([]));}"
      ],
      "transaction": {
        "from": "0x1fde40a4046eda0ca0539dd6c77abf8933b94260",
        "to": "0xaefd92921ee2a413ce4c5668ac9558ed68cc2f13",
        "gas": "0x136b87",
        "value": "0x0",
        "input": "0xd81d82bc000000000000000000000000000000000000000000000000000000000000006600000000000000000000000000000000000000000000000000000000000493e066756e2d626173652d6d61696e6e65742d310000000000000000000000000000000000000000000000000000000000000000000000000000000000000000008000000000000000000000000000000000000000000000000000000000000004af636f6e73742067616d654964203d20617267735b305d3b696620282167616d654964207c7c2069734e614e287061727365496e742867616d654964292929207468726f77206e6577204572726f722860496e76616c69642067616d6549643a20247b67616d6549647d60293b636f6e73742061706955726c203d206068747470733a2f2f626561746d652e6372656174697665706c6174666f726d2e78797a2f6170692f636861696e6c696e6b2f67616d652d72616e6b696e67732f247b67616d6549647d603b747279207b636f6e737420726573706f6e7365203d2061776169742046756e6374696f6e732e6d616b654874747052657175657374287b75726c3a2061706955726c2c6d6574686f643a2022474554222c74696d656f75743a20393030302c686561646572733a207b2027557365722d4167656e74273a2027436861696e6c696e6b2d46756e6374696f6e732d444f4e2f312e30272c2027416363657074273a20276170706c69636174696f6e2f6a736f6e27207d7d293b69662028726573706f6e73652e6572726f7229207468726f77206e6577204572726f722860415049204572726f723a20247b726573706f6e73652e6572726f727d60293b69662028726573706f6e73652e737461747573436f646520213d3d2032303029207468726f77206e6577204572726f72286048545450204572726f723a20247b726573706f6e73652e737461747573436f64657d60293b6966202821726573706f6e73652e6461746129207468726f77206e6577204572726f7228274e6f20646174612072656365697665642066726f6d2041504927293b636f6e7374207b2067616d6549643a2072657475726e656447616d6549642c2072616e6b696e6773207d203d20726573706f6e73652e646174613b696620282141727261792e697341727261792872616e6b696e67732929207468726f77206e6577204572726f722827496e76616c696420726573706f6e736520666f726d61743a2072616e6b696e6773206d75737420626520616e20617272617927293b6966202872657475726e656447616d65496420213d3d207061727365496e742867616d6549642929207468726f77206e6577204572726f72286047616d654964206d69736d617463683a20657870656374656420247b67616d6549647d2c20676f7420247b72657475726e656447616d6549647d60293b666f7220286c65742069203d20303b2069203c2072616e6b696e67732e6c656e6774683b20692b2b29207b636f6e73742061646472657373203d2072616e6b696e67735b695d3b69662028747970656f66206164647265737320213d3d2027737472696e6727207c7c20616464726573732e6c656e677468203c20313029207b7468726f77206e6577204572726f722860496e76616c6964206164647265737320617420706f736974696f6e20247b697d3a20247b616464726573737d60293b7d7d72657475726e2046756e6374696f6e732e656e636f6465537472696e67284a534f4e2e737472696e676966792872616e6b696e677329293b7d20636174636820286572726f7229207b72657475726e2046756e6374696f6e732e656e636f6465537472696e67284a534f4e2e737472696e67696679285b5d29293b7d0000000000000000000000000000000000",
        "nonce": "0x13f",
        "chainId": "0x2105"
      },
      "additionalContracts": [],
      "isFixedGasLimit": false
    }
  ],
  "receipts": [
    {
      "status": "0x1",
      "cumulativeGasUsed": "0x75da42",
      "logs": [
        {
          "address": "0xaefd92921ee2a413ce4c5668ac9558ed68cc2f13",
          "topics": [
            "0xfa54d22be4933e049af1c0b4d1b14d9737d8fc08360631ed510247c5c1a21de3"
          ],
          "data": "0x000000000000000000000000000000000000000000000000000000000000006600000000000000000000000000000000000000000000000000000000000493e066756e2d626173652d6d61696e6e65742d310000000000000000000000000000",
          "blockHash": "0xe851accf2f423f7d9f818625981b5200bcd162f33634c949385a14a4e8a94d40",
          "blockNumber": "0x238a45b",
          "blockTimestamp": "0x68fba599",
          "transactionHash": "0x602d95a2b67562ab62b76133c1276cdc83c1baf68836119d7dc192846d740e1b",
          "transactionIndex": "0x24",
          "logIndex": "0xa5",
          "removed": false
        }
      ],
      "logsBloom": "0x00000000000000000000000000000000000000000000000000000000000000000000000000000000000000000010000000000000000000000020000000000000000000000000000000000000000000000000000000000000000000000000000000000000000000000000000000000000000000000000000000000000000000000000000000000000000000000000000001000000000000000040000000000000000000000000000000000000000000000000000000000000000000000000000000000000000000000000000000000000000000000000000000000000000000080000000000000000004000000000000000000000000000000000000000000000",
      "type": "0x2",
      "transactionHash": "0x602d95a2b67562ab62b76133c1276cdc83c1baf68836119d7dc192846d740e1b",
      "transactionIndex": "0x24",
      "blockHash": "0xe851accf2f423f7d9f818625981b5200bcd162f33634c949385a14a4e8a94d40",
      "blockNumber": "0x238a45b",
      "gasUsed": "0xe0f4d",
      "effectiveGasPrice": "0x273684c",
      "from": "0x1fde40a4046eda0ca0539dd6c77abf8933b94260",
      "to": "0xaefd92921ee2a413ce4c5668ac9558ed68cc2f13",
      "contractAddress": null,
      "l1BaseFeeScalar": "0x8dd",
      "l1BlobBaseFee": "0x1",
      "l1BlobBaseFeeScalar": "0x101c12",
      "l1Fee": "0x2477ea995",
      "l1GasPrice": "0x15bba5de",
      "l1GasUsed": "0x2e38"
    }
  ],
  "libraries": [],
  "pending": [],
  "returns": {},
  "timestamp": 1761322397563,
  "chain": 8453,
  "commit": "dd01cff06"
}